:0A0E98000001020203030404050533
:10069F00E4F513F512F511F510C203C200C202C240
:1006AF00011208797E007F908E238F24752B0075A1
:1006BF002CA27521007522AC752900752AD3752DD2
:1006CF0000752EF390E680E030E70E852125852218
:1006DF0026852927852A28800C852925852A268580
:1006EF002127852228EE54E07003020812751400AA
:1006FF007515807E007F908E168F17C374679FFFCE
:10070F0074019ECF2402CF3400FEE48F0F8E0EF5BE
:10071F000DF50CF50BF50AF509F508AF0FAE0EAD9B
:10072F000DAC0CAB0BAA0AA909A808C3120C7A507E
:10073F002AE515250BF582E514350AF58374CDF0FE
:10074F00E4FAF9F8E50B2401F50BEA350AF50AE9A5
:10075F003509F509E83508F50880C0E4F50BF50A09
:10076F00F509F508AF0FAE0EAD0DAC0CAB0BAA0A29
:10077F00A909A808C3120C7A5037E517250BF58283
:10078F00E516350AF583E0FFE515250BF582E5142F
:10079F00350AF583EFF0E4FAF9F8E50B2401F50BD0
:1007AF00EA350AF50AE93509F509E83508F508804B
:1007BF00B385142385152474902480FF740034FFAF
:1007CF00FEC3E52C9FF52CE52B9EF52BC3E5269F4D
:1007DF00F526E5259EF525C3E5289FF528E5279EF7
:1007EF00F527C3E5229FF522E5219EF521C3E52AD2
:1007FF009FF52AE5299EF529C3E52E9FF52EE52DB8
:10080F009EF52DD2E843D82090E668E04409F09099
:10081F00E65CE0443DF0D2AF90E680E020E105D207
:10082F0004120CE690E680E054F7F0538EF8C20302
:10083F00300105120405C201300329120EAA5024FB
:10084F00C2031209D720001690E682E030E704E0D9
:10085F0020E1EF90E682E030E604E020E0E4120DC4
:09086F0015120EAC12016980C7DC
:01087800225D
:1004050090E6B9E070030204E114700302058A2442
:10041500FE700302061F24FB70030204DB14700345
:100425000204D51470030204C91470030204CF2416
:1004350005600302068B120EAE400302069790E696
:10044500BBE024FE602C14604724FD601614603167
:1004550024067066E52390E6B3F0E52490E6B4F053
:10046500020697E52B90E6B3F0E52C90E6B4F00292
:100475000697E52590E6B3F0E52690E6B4F002068A
:1004850097E52790E6B3F0E52890E6B4F0020697E5
:1004950090E6BAE0FF120D41AA06A9077B01EA49D9
:1004A5004B600DEE90E6B3F0EF90E6B4F0020697E0
:1004B50090E6A0E04401F002069790E6A0E0440132
:1004C500F0020697120E7A020697120EA2020697FE
:1004D500120B88020697120E68020697120EB0409C
:1004E5000302069790E6B8E0247F602B14603C2455
:1004F500026003020580A200E433FF25E0FFA202AB
:10050500E4334F90E740F0E4A3F090E68AF090E6FC
:100515008B7402F0020697E490E740F0A3F090E6B2
:100525008AF090E68B7402F002069790E6BCE054E0
:100535007EFF7E00E0D3948040067C007D01800430
:100545007C007D00EC4EFEED4F2498F582740E3E46
:10055500F583E493FF3395E0FEEF24A1FFEE34E647
:100565008F82F583E0540190E740F0E4A3F090E634
:100575008AF090E68B7402F002069790E6A0E044BC
:1005850001F0020697120EB2400302069790E6B8F4
:10059500E024FE601D2402600302069790E6BAE09F
:1005A500B40105C20002069790E6A0E04401F002FE
:1005B500069790E6BAE0705990E6BCE0547EFF7E5F
:1005C50000E0D3948040067C007D0180047C007DA2
:1005D50000EC4EFEED4F2498F582740E3EF583E453
:1005E50093FF3395E0FEEF24A1FFEE34E68F82F50D
:1005F50083E054FEF090E6BCE05480FF13131354DF
:100605001FFFE0540F2F90E683F0E04420F0020630
:100615009790E6A0E04401F08078120EB4507390F4
:10062500E6B8E024FE60202402706790E6BAE0B4E4
:100635000104D200805C90E6BAE06402605490E662
:10064500A0E04401F0804B90E6BCE0547EFF7E00C4
:10065500E0D3948040067C007D0180047C007D0011
:10066500EC4EFEED4F2498F582740E3EF583E4932F
:10067500FF3395E0FEEF24A1FFEE34E68F82F5838C
:10068500E04401F0800C120948500790E6A0E044D0
:0906950001F090E6A0E04480F0C1
:01069E002239
:030033000209FCC3
:0409FC0053D8EF32AB
:100090001201000200000040000571C300000102CF
:1000A00000010A06000200000040010009022700CA
:1000B000010100A0320904000003FF000000070551
:1000C00002020002000705860200020007058802FE
:1000D00000020009022000010100A0320904000012
:1000E00002FF00000007050202400000070586022B
:1000F000400000040309042603470050004900465D
:100100000054004F004F004C002000760030002EBD
:100110000032002E0030003000300030004A034131
:1001200000530056004D00310032003100320030E3
:1001300000200020002000200020002000200020BF
:1001400000200020002000200020002000200020AF
:10015000002000200020002000200020002000209F
:0901600000200020002000000036
:03004300020A00AE
:03005300020A009E
:100A0000020E0C00020E5200020E3C00020E2400E8
:100A1000020C0C00020C4300020EB600020EB700DE
:100A2000020EB800020EB900020EBA00020EBB00A0
:100A3000020EBC00020EBD00020EBE00020EBF0080
:100A4000020EC000020EB700020EC100020EC2006C
:100A5000020EC300020EC400020EC500020EC60044
:100A6000020EC700020EB700020EB700020EB7005A
:100A7000020EC800020EC900020ECA00020ECB0010
:100A8000020ECC00020ECD00020ECE00020ECF00F0
:100A9000020ED000020ED100020ED200020ED300D0
:100AA000020ED400020ED500020ED600020ED700B0
:080AB000020ED800020DBC008B
:100D150090E682E030E004E020E60B90E682E030E9
:100D2500E119E030E71590E680E04401F07F147E9C
:0C0D350000120BCB90E680E054FEF02290
:1009D70090E682E044C0F090E681F0438701000092
:0409E70000000022EA
:100CE60030040990E680E0440AF0800790E680E050
:100CF6004408F07FDC7E05120BCB90E65D74FFF0B6
:0F0D060090E65FF05391EF90E680E054F7F02213
:020D4100A90700
:100D4300AE2DAF2E8F828E83A3E064037017AD01A7
:100D530019ED7001228F828E83E07C002FFDEC3E23
:090D6300FEAF0580DF7E007F0079
:010D6C002264
:100BCB008E1D8F1E90E600E05418700DE51DC313AB
:100BDB00F51DE51E13F51E801590E600E05418FF79
:100BEB00BF100BE51E25E0F51EE51D33F51DE51EBB
:100BFB00151EAE1D7002151D4E60051209EB80EE21
:010C0B0022C6
:1009EB007400F58690FDA57C05A3E582458370F91F
:0109FB0022D9
:0B0E8C00022F000002320000013400C1
:0F00800053B1FD43B10200000053B1FD00000079
:01008F00224E
:020D6D00AD07D0
:100D6F00E4FC74017E00A804088005C333CE33CEA3
:100D7F00D8F9FFEDFBE4EF5B600543B1018003534E
:090D8F00B1FE1200800CBC08D971
:010D98002238
:100DDA0043B18000000043B14000000053B17F00DE
:090DEA00000053B1BF000000221B
:100DF30043B14000000043B18000000053B1BF0085
:090E0300000053B17F0000002241
:020CB100AD078D
:100CB300E4FC74017E00A804088005C333CE33CE60
:100CC300D8F9FFEDFBE4EF5B600543B120800353EC
:100CD300B1DF43B14000000053B1BF0000000CBCC2
:020CE30008D037
:010CE50022EC
:020B4400AD07FB
:100B4600E4FC74017E00A804088005C333CE33CECE
:100B5600D8F9FFEDFBE4EF5B600543B1208003535A
:100B6600B1DF43B14000000053B1BF0000000CBC30
:100B760007D0ED30E70543B120800353B1DF120DF6
:010B8600F37B
:010B8700224B
:100D99007E80EE601D5F600543A002800353A0FDC5
:100DA90000000053A0EF00000043A010EEC313FEA3
:020DB90080E0D8
:010DBB002215
:1008790090E6007410F000000090E60174E3F000C7
:10088900000090E61274A2F000000090E61474E2F1
:10089900F000000090E615F000000090E6137420C7
:1008A900F000000090E6047480F00000007402F08B
:1008B9000000007404F00000007406F000000074E9
:1008C90008F0000000E4F000000090E61804F000D1
:1008D900000090E61AF000000090E602740EF000A5
:1008E900000090E6917480F0000000F0000000F034
:1008F900000000F090E668E04403F0000000539126
:10090900BF00000090E6617402F000000090E6600C
:10091900F000000043E80443B60153B1FD43B602B9
:1009290043B10443B60453B1DF43B62053B1BF43C7
:0E093900B64053B17F43B68075A01F75B41F42
:01094700228D
:10016900E5AA30E00302040490F000E0F51800006D
:100179000090E6047480F0E518120C8B01A480014C
:10018900D181021A82023D8302578402828503C506
:100199008A03BD8B03288D000003F300000090E65D
:1001A9001A7401F000000090E6047406F0000000E3
:1001B900E4F053B1FB7F01FE120BCB43B1047F0185
:1001C9007E00120BCB0203F390F002E0FE90F001E7
:1001D900E07C002400F51AEC3EF519751B00751C2E
:1001E90003E51A2403FFE43519FEC3E51C9FE51B4B
:1001F9009E40030203F37400251CF58274F0351B3D
:10020900F583E0FF120D6D051CE51C7002051B80CE
:10021900D0E4F51BF51C120080051CE51C700205D5
:100229001BC39464E51B940040EC7F017E00120B14
:10023900CB0203F390F800E5B1F000000090E698D6
:100249007401F0000000E490E699F00203F3000065
:100259000090E6047406F090F001E0600B000000E5
:1002690090E61A7409F0800900000090E61A7401FA
:10027900F0E490E604F00203F390F001E04480FF1B
:10028900120CB1A3E0FF120CB1A3E0FF120CB1A351
:10029900E0FF120B4490F006E0F9751B00751C068F
:1002A900E4FAE92402FFE433FEEAC39FEE6480F82E
:1002B90074809850367400251CF58274F0351BF54E
:1002C90083E0FF120CB1051CE51C7002051B24001C
:1002D900F58274F0351BF583E0FF120CB1051CE5BE
:1002E9001C7002051B120DDA0A80B700000090E6A7
:1002F9001A7409F000000090E6047406F00000008A
:10030900E4F090F001E0FF120CB1A3E0FF120CB190
:10031900A3E0FF120CB1A3E0FF120B440203F39018
:10032900F001E04480FF120CB1A3E0FF120CB1A36D
:10033900E0FF120CB1A3E0FF120B44751B00751C02
:1003490006C3E51C940CE51B940050357400251C6C
:10035900F58274F0351BF583E0FF120CB1051CE53D
:100369001C7002051B2400F58274F0351BF583E02F
:10037900FF120CB1051CE51C7002051B120DDA8079
:10038900C000000090E61A7409F000000090E6042D
:100399007406F0000000E4F090F001E0FF120CB1E7
:1003A900A3E0FF120CB1A3E0FF120CB1A3E0FF120E
:1003B9000B44803690F001E0F5A0802E43B4105331
:1003C900A0F790F001E0FDE4F518E518C39D50147D
:1003D90074022518F582E434F0F583E0FF120D99D3
:1003E900051880E643A00853B4EF00000090E69199
:0B03F9007480F0000000E490E604F0C7
:0104040022D5
:020EAA00D32251
:020EAC00D3224F
:020EAE00D3224D
:100B880090E680E030E71B00000090E6247402F055
:100B9800000000E490E625F0000000752F02F53013
:100BA8008019000000E490E624F000000090E6259B
:100BB8007440F0000000752F00F53090E6BAE0F5BB
:030BC80035D32200
:100E680090E740E535F0E490E68AF090E68B04F0F0
:020E7800D32283
:080EA20090E6BAE0F531D3221D
:100E7A0090E740E531F0E490E68AF090E68B04F0E2
:020E8A00D32271
:020EB000D3224B
:020EB200D32249
:020EB400D32247
:1009480090E6B9E0244C601914601E24FE60281457
:1009580060301460512407706190E74074B2F080F1
:100968005B90E740E5BBF0805390E6F574FFF090AC
:10097800E74074B5F0804512087990E74074B7F005
:10098800803AE490E68AF090E68B04F090E6A0E0E6
:100998004480F0000000000000C2AF12000090E7A1
:1009A8004074B8F0801600000090E6487406F00025
:1009B800000090E74074B9F08002C322E490E68A10
:0F09C800F090E68B04F090E6A0E04480F0C322AC
:100E0C00C0E0C083C082D2015391EF90E65D7401C3
:080E1C00F0D082D083D0E03257
:100E3C00C0E0C083C0825391EF90E65D7404F0D0A3
:060E4C0082D083D0E032E9
:100E5200C0E0C083C0825391EF90E65D7402F0D08F
:060E620082D083D0E032D3
:100C0C00C0E0C083C08290E680E030E70E852125ED
:100C1C00852226852927852A28800C852925852A41
:100C2C00268521278522285391EF90E65D7410F0DC
:070C3C00D082D083D0E0322A
:100E2400C0E0C083C082D2035391EF90E65D7408A2
:080E3400F0D082D083D0E0323F
:100C4300C0E0C083C08290E680E030E70E852125B6
:100C5300852226852927852A28800C852925852A0A
:100C6300268521278522285391EF90E65D7420F095
:070C7300D082D083D0E032F3
:010EB6003209
:010EB7003208
:010EB8003207
:010EB9003206
:010EBA003205
:010EBB003204
:010EBC003203
:010EBD003202
:010EBE003201
:010EBF003200
:010EC00032FF
:010EC10032FE
:010EC20032FD
:010EC30032FC
:010EC40032FB
:010EC50032FA
:010EC60032F9
:010EC70032F8
:010EC80032F7
:010EC90032F6
:010ECA0032F5
:010ECB0032F4
:010ECC0032F3
:010ECD0032F2
:010ECE0032F1
:010ECF0032F0
:010ED00032EF
:010ED10032EE
:010ED20032ED
:010ED30032EC
:010ED40032EB
:010ED50032EA
:010ED60032E9
:010ED70032E8
:010ED80032E7
:100DBC00C0E0C083C08290E6F574FFF000000053E1
:0E0DCC0091BFF5A2000000D082D083D0E032AB
:03000000020AB839
:0C0AB800787FE4F6D8FD758135020AFF56
:100C7A00EB9FF5F0EA9E42F0E99D42F0E89C45F0D0
:010C8A002247
:100C8B00D083D082F8E4937012740193700DA3A3F8
:100C9B0093F8740193F5828883E47374029368600C
:060CAB00EFA3A3A380DF0C
:100AC40002069FE493A3F8E493A34003F68001F2A3
:100AD40008DFF48029E493A3F85407240CC8C33333
:100AE400C4540F4420C8834004F456800146F6DF02
:100AF400E4800B0102040810204080900E8CE47EF8
:100B0400019360BCA3FF543F30E509541FFEE493F6
:100B1400A360010ECF54C025E060A840B8E493A3BD
:100B2400FAE493A3F8E493A3C8C582C8CAC583CAE8
:100B3400F0A3C8C582C8CAC583CADFE9DEE780BEA0
:010E9700005A
:00000001FF
